{
  "_format": "hh-sol-artifact-1",
  "contractName": "BASEBUILDER",
  "sourceName": "contracts/BaseBuilder.sol",
  "abi": [
    {
      "inputs": [
        {
          "internalType": "string",
          "name": "name_",
          "type": "string"
        },
        {
          "internalType": "string",
          "name": "symbol_",
          "type": "string"
        },
        {
          "internalType": "uint8",
          "name": "decimals_",
          "type": "uint8"
        },
        {
          "internalType": "uint256",
          "name": "totalSupply_",
          "type": "uint256"
        },
        {
          "internalType": "bytes32",
          "name": "metadata_",
          "type": "bytes32"
        }
      ],
      "stateMutability": "nonpayable",
      "type": "constructor"
    },
    {
      "inputs": [
        {
          "internalType": "address",
          "name": "spender",
          "type": "address"
        },
        {
          "internalType": "uint256",
          "name": "allowance",
          "type": "uint256"
        },
        {
          "internalType": "uint256",
          "name": "needed",
          "type": "uint256"
        }
      ],
      "name": "ERC20InsufficientAllowance",
      "type": "error"
    },
    {
      "inputs": [
        {
          "internalType": "address",
          "name": "sender",
          "type": "address"
        },
        {
          "internalType": "uint256",
          "name": "balance",
          "type": "uint256"
        },
        {
          "internalType": "uint256",
          "name": "needed",
          "type": "uint256"
        }
      ],
      "name": "ERC20InsufficientBalance",
      "type": "error"
    },
    {
      "inputs": [
        {
          "internalType": "address",
          "name": "approver",
          "type": "address"
        }
      ],
      "name": "ERC20InvalidApprover",
      "type": "error"
    },
    {
      "inputs": [
        {
          "internalType": "address",
          "name": "receiver",
          "type": "address"
        }
      ],
      "name": "ERC20InvalidReceiver",
      "type": "error"
    },
    {
      "inputs": [
        {
          "internalType": "address",
          "name": "sender",
          "type": "address"
        }
      ],
      "name": "ERC20InvalidSender",
      "type": "error"
    },
    {
      "inputs": [
        {
          "internalType": "address",
          "name": "spender",
          "type": "address"
        }
      ],
      "name": "ERC20InvalidSpender",
      "type": "error"
    },
    {
      "anonymous": false,
      "inputs": [
        {
          "indexed": true,
          "internalType": "address",
          "name": "owner",
          "type": "address"
        },
        {
          "indexed": true,
          "internalType": "address",
          "name": "spender",
          "type": "address"
        },
        {
          "indexed": false,
          "internalType": "uint256",
          "name": "value",
          "type": "uint256"
        }
      ],
      "name": "Approval",
      "type": "event"
    },
    {
      "anonymous": false,
      "inputs": [
        {
          "indexed": true,
          "internalType": "address",
          "name": "from",
          "type": "address"
        },
        {
          "indexed": true,
          "internalType": "address",
          "name": "to",
          "type": "address"
        },
        {
          "indexed": false,
          "internalType": "uint256",
          "name": "value",
          "type": "uint256"
        }
      ],
      "name": "Transfer",
      "type": "event"
    },
    {
      "inputs": [
        {
          "internalType": "address",
          "name": "owner",
          "type": "address"
        },
        {
          "internalType": "address",
          "name": "spender",
          "type": "address"
        }
      ],
      "name": "allowance",
      "outputs": [
        {
          "internalType": "uint256",
          "name": "",
          "type": "uint256"
        }
      ],
      "stateMutability": "view",
      "type": "function"
    },
    {
      "inputs": [
        {
          "internalType": "address",
          "name": "spender",
          "type": "address"
        },
        {
          "internalType": "uint256",
          "name": "value",
          "type": "uint256"
        }
      ],
      "name": "approve",
      "outputs": [
        {
          "internalType": "bool",
          "name": "",
          "type": "bool"
        }
      ],
      "stateMutability": "nonpayable",
      "type": "function"
    },
    {
      "inputs": [
        {
          "internalType": "address",
          "name": "account",
          "type": "address"
        }
      ],
      "name": "balanceOf",
      "outputs": [
        {
          "internalType": "uint256",
          "name": "",
          "type": "uint256"
        }
      ],
      "stateMutability": "view",
      "type": "function"
    },
    {
      "inputs": [
        {
          "internalType": "address payable[]",
          "name": "recipients",
          "type": "address[]"
        },
        {
          "internalType": "uint256[]",
          "name": "amounts",
          "type": "uint256[]"
        }
      ],
      "name": "batchSendNative",
      "outputs": [],
      "stateMutability": "nonpayable",
      "type": "function"
    },
    {
      "inputs": [
        {
          "internalType": "address[]",
          "name": "recipients",
          "type": "address[]"
        },
        {
          "internalType": "uint256[]",
          "name": "amounts",
          "type": "uint256[]"
        }
      ],
      "name": "batchSendToken",
      "outputs": [],
      "stateMutability": "nonpayable",
      "type": "function"
    },
    {
      "inputs": [],
      "name": "decimals",
      "outputs": [
        {
          "internalType": "uint8",
          "name": "",
          "type": "uint8"
        }
      ],
      "stateMutability": "view",
      "type": "function"
    },
    {
      "inputs": [],
      "name": "deploymentMetadata",
      "outputs": [
        {
          "internalType": "bytes32",
          "name": "",
          "type": "bytes32"
        }
      ],
      "stateMutability": "view",
      "type": "function"
    },
    {
      "inputs": [],
      "name": "name",
      "outputs": [
        {
          "internalType": "string",
          "name": "",
          "type": "string"
        }
      ],
      "stateMutability": "view",
      "type": "function"
    },
    {
      "inputs": [],
      "name": "owner",
      "outputs": [
        {
          "internalType": "address",
          "name": "",
          "type": "address"
        }
      ],
      "stateMutability": "view",
      "type": "function"
    },
    {
      "inputs": [
        {
          "internalType": "address payable",
          "name": "recipient",
          "type": "address"
        },
        {
          "internalType": "uint256",
          "name": "amount",
          "type": "uint256"
        }
      ],
      "name": "sendNative",
      "outputs": [],
      "stateMutability": "nonpayable",
      "type": "function"
    },
    {
      "inputs": [
        {
          "internalType": "address",
          "name": "recipient",
          "type": "address"
        },
        {
          "internalType": "uint256",
          "name": "amount",
          "type": "uint256"
        }
      ],
      "name": "sendToken",
      "outputs": [],
      "stateMutability": "nonpayable",
      "type": "function"
    },
    {
      "inputs": [],
      "name": "symbol",
      "outputs": [
        {
          "internalType": "string",
          "name": "",
          "type": "string"
        }
      ],
      "stateMutability": "view",
      "type": "function"
    },
    {
      "inputs": [],
      "name": "totalSupply",
      "outputs": [
        {
          "internalType": "uint256",
          "name": "",
          "type": "uint256"
        }
      ],
      "stateMutability": "view",
      "type": "function"
    },
    {
      "inputs": [
        {
          "internalType": "address",
          "name": "to",
          "type": "address"
        },
        {
          "internalType": "uint256",
          "name": "value",
          "type": "uint256"
        }
      ],
      "name": "transfer",
      "outputs": [
        {
          "internalType": "bool",
          "name": "",
          "type": "bool"
        }
      ],
      "stateMutability": "nonpayable",
      "type": "function"
    },
    {
      "inputs": [
        {
          "internalType": "address",
          "name": "from",
          "type": "address"
        },
        {
          "internalType": "address",
          "name": "to",
          "type": "address"
        },
        {
          "internalType": "uint256",
          "name": "value",
          "type": "uint256"
        }
      ],
      "name": "transferFrom",
      "outputs": [
        {
          "internalType": "bool",
          "name": "",
          "type": "bool"
        }
      ],
      "stateMutability": "nonpayable",
      "type": "function"
    },
    {
      "stateMutability": "payable",
      "type": "receive"
    }
  ],
  "bytecode": "0x60a060405234801561001057600080fd5b50604051612800380380612800833981810160405281019061003291906105dd565b8484816003908161004391906108a7565b50806004908161005391906108a7565b505050846005908161006591906108a7565b50836006908161007591906108a7565b5082600760006101000a81548160ff021916908360ff16021790555033600760016101000a81548173ffffffffffffffffffffffffffffffffffffffff021916908373ffffffffffffffffffffffffffffffffffffffff160217905550806080818152505061010c600760019054906101000a900473ffffffffffffffffffffffffffffffffffffffff168361011660201b60201c565b5050505050610a99565b600073ffffffffffffffffffffffffffffffffffffffff168273ffffffffffffffffffffffffffffffffffffffff16036101885760006040517fec442f0500000000000000000000000000000000000000000000000000000000815260040161017f91906109ba565b60405180910390fd5b61019a6000838361019e60201b60201c565b5050565b600073ffffffffffffffffffffffffffffffffffffffff168373ffffffffffffffffffffffffffffffffffffffff16036101f05780600260008282546101e49190610a04565b925050819055506102c3565b60008060008573ffffffffffffffffffffffffffffffffffffffff1673ffffffffffffffffffffffffffffffffffffffff1681526020019081526020016000205490508181101561027c578381836040517fe450d38c00000000000000000000000000000000000000000000000000000000815260040161027393929190610a47565b60405180910390fd5b8181036000808673ffffffffffffffffffffffffffffffffffffffff1673ffffffffffffffffffffffffffffffffffffffff16815260200190815260200160002081905550505b600073ffffffffffffffffffffffffffffffffffffffff168273ffffffffffffffffffffffffffffffffffffffff160361030c5780600260008282540392505081905550610359565b806000808473ffffffffffffffffffffffffffffffffffffffff1673ffffffffffffffffffffffffffffffffffffffff168152602001908152602001600020600082825401925050819055505b8173ffffffffffffffffffffffffffffffffffffffff168373ffffffffffffffffffffffffffffffffffffffff167fddf252ad1be2c89b69c2b068fc378daa952ba7f163c4a11628f55a4df523b3ef836040516103b69190610a7e565b60405180910390a3505050565b6000604051905090565b600080fd5b600080fd5b600080fd5b600080fd5b6000601f19601f8301169050919050565b7f4e487b7100000000000000000000000000000000000000000000000000000000600052604160045260246000fd5b61042a826103e1565b810181811067ffffffffffffffff82111715610449576104486103f2565b5b80604052505050565b600061045c6103c3565b90506104688282610421565b919050565b600067ffffffffffffffff821115610488576104876103f2565b5b610491826103e1565b9050602081019050919050565b60005b838110156104bc5780820151818401526020810190506104a1565b60008484015250505050565b60006104db6104d68461046d565b610452565b9050828152602081018484840111156104f7576104f66103dc565b5b61050284828561049e565b509392505050565b600082601f83011261051f5761051e6103d7565b5b815161052f8482602086016104c8565b91505092915050565b600060ff82169050919050565b61054e81610538565b811461055957600080fd5b50565b60008151905061056b81610545565b92915050565b6000819050919050565b61058481610571565b811461058f57600080fd5b50565b6000815190506105a18161057b565b92915050565b6000819050919050565b6105ba816105a7565b81146105c557600080fd5b50565b6000815190506105d7816105b1565b92915050565b600080600080600060a086880312156105f9576105f86103cd565b5b600086015167ffffffffffffffff811115610617576106166103d2565b5b6106238882890161050a565b955050602086015167ffffffffffffffff811115610644576106436103d2565b5b6106508882890161050a565b94505060406106618882890161055c565b935050606061067288828901610592565b9250506080610683888289016105c8565b9150509295509295909350565b600081519050919050565b7f4e487b7100000000000000000000000000000000000000000000000000000000600052602260045260246000fd5b600060028204905060018216806106e257607f821691505b6020821081036106f5576106f461069b565b5b50919050565b60008190508160005260206000209050919050565b60006020601f8301049050919050565b600082821b905092915050565b60006008830261075d7fffffffffffffffffffffffffffffffffffffffffffffffffffffffffffffffff82610720565b6107678683610720565b95508019841693508086168417925050509392505050565b6000819050919050565b60006107a461079f61079a84610571565b61077f565b610571565b9050919050565b6000819050919050565b6107be83610789565b6107d26107ca826107ab565b84845461072d565b825550505050565b600090565b6107e76107da565b6107f28184846107b5565b505050565b5b818110156108165761080b6000826107df565b6001810190506107f8565b5050565b601f82111561085b5761082c816106fb565b61083584610710565b81016020851015610844578190505b61085861085085610710565b8301826107f7565b50505b505050565b600082821c905092915050565b600061087e60001984600802610860565b1980831691505092915050565b6000610897838361086d565b9150826002028217905092915050565b6108b082610690565b67ffffffffffffffff8111156108c9576108c86103f2565b5b6108d382546106ca565b6108de82828561081a565b600060209050601f83116001811461091157600084156108ff578287015190505b610909858261088b565b865550610971565b601f19841661091f866106fb565b60005b8281101561094757848901518255600182019150602085019450602081019050610922565b868310156109645784890151610960601f89168261086d565b8355505b6001600288020188555050505b505050505050565b600073ffffffffffffffffffffffffffffffffffffffff82169050919050565b60006109a482610979565b9050919050565b6109b481610999565b82525050565b60006020820190506109cf60008301846109ab565b92915050565b7f4e487b7100000000000000000000000000000000000000000000000000000000600052601160045260246000fd5b6000610a0f82610571565b9150610a1a83610571565b9250828201905080821115610a3257610a316109d5565b5b92915050565b610a4181610571565b82525050565b6000606082019050610a5c60008301866109ab565b610a696020830185610a38565b610a766040830184610a38565b949350505050565b6000602082019050610a936000830184610a38565b92915050565b608051611d4c610ab460003960006106dc0152611d4c6000f3fe6080604052600436106100ec5760003560e01c8063412664ae1161008a57806395d89b411161005957806395d89b4114610301578063a9059cbb1461032c578063dd62ed3e14610369578063e03bf7bb146103a6576100f3565b8063412664ae14610247578063668075661461027057806370a08231146102995780638da5cb5b146102d6576100f3565b806318160ddd116100c657806318160ddd1461018957806323b872dd146101b45780632c331dcb146101f1578063313ce5671461021c576100f3565b8063017459c3146100f857806306fdde0314610121578063095ea7b31461014c576100f3565b366100f357005b600080fd5b34801561010457600080fd5b5061011f600480360381019061011a91906113db565b6103cf565b005b34801561012d57600080fd5b506101366105ec565b60405161014391906114ec565b60405180910390f35b34801561015857600080fd5b50610173600480360381019061016e91906115a2565b61067e565b60405161018091906115fd565b60405180910390f35b34801561019557600080fd5b5061019e6106a1565b6040516101ab9190611627565b60405180910390f35b3480156101c057600080fd5b506101db60048036038101906101d69190611642565b6106ab565b6040516101e891906115fd565b60405180910390f35b3480156101fd57600080fd5b506102066106da565b60405161021391906116ae565b60405180910390f35b34801561022857600080fd5b506102316106fe565b60405161023e91906116e5565b60405180910390f35b34801561025357600080fd5b5061026e600480360381019061026991906115a2565b610715565b005b34801561027c57600080fd5b506102976004803603810190610292919061173e565b6107d6565b005b3480156102a557600080fd5b506102c060048036038101906102bb919061177e565b61095a565b6040516102cd9190611627565b60405180910390f35b3480156102e257600080fd5b506102eb6109a2565b6040516102f891906117ba565b60405180910390f35b34801561030d57600080fd5b506103166109c8565b60405161032391906114ec565b60405180910390f35b34801561033857600080fd5b50610353600480360381019061034e91906115a2565b610a5a565b60405161036091906115fd565b60405180910390f35b34801561037557600080fd5b50610390600480360381019061038b91906117d5565b610a7d565b60405161039d9190611627565b60405180910390f35b3480156103b257600080fd5b506103cd60048036038101906103c8919061186b565b610b04565b005b600760019054906101000a900473ffffffffffffffffffffffffffffffffffffffff1673ffffffffffffffffffffffffffffffffffffffff163373ffffffffffffffffffffffffffffffffffffffff161461045f576040517f08c379a00000000000000000000000000000000000000000000000000000000081526004016104569061195e565b60405180910390fd5b8181905084849050146104a7576040517f08c379a000000000000000000000000000000000000000000000000000000000815260040161049e906119ca565b60405180910390fd5b600080600090505b838390508110156104ee578383828181106104cd576104cc6119ea565b5b90506020020135826104df9190611a48565b915080806001019150506104af565b508061051b600760019054906101000a900473ffffffffffffffffffffffffffffffffffffffff1661095a565b101561055c576040517f08c379a000000000000000000000000000000000000000000000000000000000815260040161055390611aee565b60405180910390fd5b60005b858590508110156105e4576105d7600760019054906101000a900473ffffffffffffffffffffffffffffffffffffffff168787848181106105a3576105a26119ea565b5b90506020020160208101906105b8919061177e565b8686858181106105cb576105ca6119ea565b5b90506020020135610d77565b808060010191505061055f565b505050505050565b6060600580546105fb90611b3d565b80601f016020809104026020016040519081016040528092919081815260200182805461062790611b3d565b80156106745780601f1061064957610100808354040283529160200191610674565b820191906000526020600020905b81548152906001019060200180831161065757829003601f168201915b5050505050905090565b600080610689610e6b565b9050610696818585610e73565b600191505092915050565b6000600254905090565b6000806106b6610e6b565b90506106c3858285610e85565b6106ce858585610d77565b60019150509392505050565b7f000000000000000000000000000000000000000000000000000000000000000081565b6000600760009054906101000a900460ff16905090565b600760019054906101000a900473ffffffffffffffffffffffffffffffffffffffff1673ffffffffffffffffffffffffffffffffffffffff163373ffffffffffffffffffffffffffffffffffffffff16146107a5576040517f08c379a000000000000000000000000000000000000000000000000000000000815260040161079c9061195e565b60405180910390fd5b6107d2600760019054906101000a900473ffffffffffffffffffffffffffffffffffffffff168383610d77565b5050565b600760019054906101000a900473ffffffffffffffffffffffffffffffffffffffff1673ffffffffffffffffffffffffffffffffffffffff163373ffffffffffffffffffffffffffffffffffffffff1614610866576040517f08c379a000000000000000000000000000000000000000000000000000000000815260040161085d9061195e565b60405180910390fd5b804710156108a9576040517f08c379a00000000000000000000000000000000000000000000000000000000081526004016108a090611be0565b60405180910390fd5b60008273ffffffffffffffffffffffffffffffffffffffff16826040516108cf90611c31565b60006040518083038185875af1925050503d806000811461090c576040519150601f19603f3d011682016040523d82523d6000602084013e610911565b606091505b5050905080610955576040517f08c379a000000000000000000000000000000000000000000000000000000000815260040161094c90611c92565b60405180910390fd5b505050565b60008060008373ffffffffffffffffffffffffffffffffffffffff1673ffffffffffffffffffffffffffffffffffffffff168152602001908152602001600020549050919050565b600760019054906101000a900473ffffffffffffffffffffffffffffffffffffffff1681565b6060600680546109d790611b3d565b80601f0160208091040260200160405190810160405280929190818152602001828054610a0390611b3d565b8015610a505780601f10610a2557610100808354040283529160200191610a50565b820191906000526020600020905b815481529060010190602001808311610a3357829003601f168201915b5050505050905090565b600080610a65610e6b565b9050610a72818585610d77565b600191505092915050565b6000600160008473ffffffffffffffffffffffffffffffffffffffff1673ffffffffffffffffffffffffffffffffffffffff16815260200190815260200160002060008373ffffffffffffffffffffffffffffffffffffffff1673ffffffffffffffffffffffffffffffffffffffff16815260200190815260200160002054905092915050565b600760019054906101000a900473ffffffffffffffffffffffffffffffffffffffff1673ffffffffffffffffffffffffffffffffffffffff163373ffffffffffffffffffffffffffffffffffffffff1614610b94576040517f08c379a0000000000000000000000000000000000000000000000000000000008152600401610b8b9061195e565b60405180910390fd5b818190508484905014610bdc576040517f08c379a0000000000000000000000000000000000000000000000000000000008152600401610bd3906119ca565b60405180910390fd5b600080600090505b83839050811015610c2357838382818110610c0257610c016119ea565b5b9050602002013582610c149190611a48565b91508080600101915050610be4565b5080471015610c67576040517f08c379a0000000000000000000000000000000000000000000000000000000008152600401610c5e90611be0565b60405180910390fd5b60005b85859050811015610d6f576000868683818110610c8a57610c896119ea565b5b9050602002016020810190610c9f9190611cb2565b73ffffffffffffffffffffffffffffffffffffffff16858584818110610cc857610cc76119ea565b5b90506020020135604051610cdb90611c31565b60006040518083038185875af1925050503d8060008114610d18576040519150601f19603f3d011682016040523d82523d6000602084013e610d1d565b606091505b5050905080610d61576040517f08c379a0000000000000000000000000000000000000000000000000000000008152600401610d5890611c92565b60405180910390fd5b508080600101915050610c6a565b505050505050565b600073ffffffffffffffffffffffffffffffffffffffff168373ffffffffffffffffffffffffffffffffffffffff1603610de95760006040517f96c6fd1e000000000000000000000000000000000000000000000000000000008152600401610de091906117ba565b60405180910390fd5b600073ffffffffffffffffffffffffffffffffffffffff168273ffffffffffffffffffffffffffffffffffffffff1603610e5b5760006040517fec442f05000000000000000000000000000000000000000000000000000000008152600401610e5291906117ba565b60405180910390fd5b610e66838383610f1a565b505050565b600033905090565b610e80838383600161113f565b505050565b6000610e918484610a7d565b90507fffffffffffffffffffffffffffffffffffffffffffffffffffffffffffffffff811015610f145781811015610f04578281836040517ffb8f41b2000000000000000000000000000000000000000000000000000000008152600401610efb93929190611cdf565b60405180910390fd5b610f138484848403600061113f565b5b50505050565b600073ffffffffffffffffffffffffffffffffffffffff168373ffffffffffffffffffffffffffffffffffffffff1603610f6c578060026000828254610f609190611a48565b9250508190555061103f565b60008060008573ffffffffffffffffffffffffffffffffffffffff1673ffffffffffffffffffffffffffffffffffffffff16815260200190815260200160002054905081811015610ff8578381836040517fe450d38c000000000000000000000000000000000000000000000000000000008152600401610fef93929190611cdf565b60405180910390fd5b8181036000808673ffffffffffffffffffffffffffffffffffffffff1673ffffffffffffffffffffffffffffffffffffffff16815260200190815260200160002081905550505b600073ffffffffffffffffffffffffffffffffffffffff168273ffffffffffffffffffffffffffffffffffffffff160361108857806002600082825403925050819055506110d5565b806000808473ffffffffffffffffffffffffffffffffffffffff1673ffffffffffffffffffffffffffffffffffffffff168152602001908152602001600020600082825401925050819055505b8173ffffffffffffffffffffffffffffffffffffffff168373ffffffffffffffffffffffffffffffffffffffff167fddf252ad1be2c89b69c2b068fc378daa952ba7f163c4a11628f55a4df523b3ef836040516111329190611627565b60405180910390a3505050565b600073ffffffffffffffffffffffffffffffffffffffff168473ffffffffffffffffffffffffffffffffffffffff16036111b15760006040517fe602df050000000000000000000000000000000000000000000000000000000081526004016111a891906117ba565b60405180910390fd5b600073ffffffffffffffffffffffffffffffffffffffff168373ffffffffffffffffffffffffffffffffffffffff16036112235760006040517f94280d6200000000000000000000000000000000000000000000000000000000815260040161121a91906117ba565b60405180910390fd5b81600160008673ffffffffffffffffffffffffffffffffffffffff1673ffffffffffffffffffffffffffffffffffffffff16815260200190815260200160002060008573ffffffffffffffffffffffffffffffffffffffff1673ffffffffffffffffffffffffffffffffffffffff168152602001908152602001600020819055508015611310578273ffffffffffffffffffffffffffffffffffffffff168473ffffffffffffffffffffffffffffffffffffffff167f8c5be1e5ebec7d5bd14f71427d1e84f3dd0314c0f7b2291e5b200ac8c7c3b925846040516113079190611627565b60405180910390a35b50505050565b600080fd5b600080fd5b600080fd5b600080fd5b600080fd5b60008083601f84011261134557611344611320565b5b8235905067ffffffffffffffff81111561136257611361611325565b5b60208301915083602082028301111561137e5761137d61132a565b5b9250929050565b60008083601f84011261139b5761139a611320565b5b8235905067ffffffffffffffff8111156113b8576113b7611325565b5b6020830191508360208202830111156113d4576113d361132a565b5b9250929050565b600080600080604085870312156113f5576113f4611316565b5b600085013567ffffffffffffffff8111156114135761141261131b565b5b61141f8782880161132f565b9450945050602085013567ffffffffffffffff8111156114425761144161131b565b5b61144e87828801611385565b925092505092959194509250565b600081519050919050565b600082825260208201905092915050565b60005b8381101561149657808201518184015260208101905061147b565b60008484015250505050565b6000601f19601f8301169050919050565b60006114be8261145c565b6114c88185611467565b93506114d8818560208601611478565b6114e1816114a2565b840191505092915050565b6000602082019050818103600083015261150681846114b3565b905092915050565b600073ffffffffffffffffffffffffffffffffffffffff82169050919050565b60006115398261150e565b9050919050565b6115498161152e565b811461155457600080fd5b50565b60008135905061156681611540565b92915050565b6000819050919050565b61157f8161156c565b811461158a57600080fd5b50565b60008135905061159c81611576565b92915050565b600080604083850312156115b9576115b8611316565b5b60006115c785828601611557565b92505060206115d88582860161158d565b9150509250929050565b60008115159050919050565b6115f7816115e2565b82525050565b600060208201905061161260008301846115ee565b92915050565b6116218161156c565b82525050565b600060208201905061163c6000830184611618565b92915050565b60008060006060848603121561165b5761165a611316565b5b600061166986828701611557565b935050602061167a86828701611557565b925050604061168b8682870161158d565b9150509250925092565b6000819050919050565b6116a881611695565b82525050565b60006020820190506116c3600083018461169f565b92915050565b600060ff82169050919050565b6116df816116c9565b82525050565b60006020820190506116fa60008301846116d6565b92915050565b600061170b8261150e565b9050919050565b61171b81611700565b811461172657600080fd5b50565b60008135905061173881611712565b92915050565b6000806040838503121561175557611754611316565b5b600061176385828601611729565b92505060206117748582860161158d565b9150509250929050565b60006020828403121561179457611793611316565b5b60006117a284828501611557565b91505092915050565b6117b48161152e565b82525050565b60006020820190506117cf60008301846117ab565b92915050565b600080604083850312156117ec576117eb611316565b5b60006117fa85828601611557565b925050602061180b85828601611557565b9150509250929050565b60008083601f84011261182b5761182a611320565b5b8235905067ffffffffffffffff81111561184857611847611325565b5b6020830191508360208202830111156118645761186361132a565b5b9250929050565b6000806000806040858703121561188557611884611316565b5b600085013567ffffffffffffffff8111156118a3576118a261131b565b5b6118af87828801611815565b9450945050602085013567ffffffffffffffff8111156118d2576118d161131b565b5b6118de87828801611385565b925092505092959194509250565b7f4f6e6c79206f776e65722063616e2063616c6c20746869732066756e6374696f60008201527f6e00000000000000000000000000000000000000000000000000000000000000602082015250565b6000611948602183611467565b9150611953826118ec565b604082019050919050565b600060208201905081810360008301526119778161193b565b9050919050565b7f417272617973206c656e677468206d69736d6174636800000000000000000000600082015250565b60006119b4601683611467565b91506119bf8261197e565b602082019050919050565b600060208201905081810360008301526119e3816119a7565b9050919050565b7f4e487b7100000000000000000000000000000000000000000000000000000000600052603260045260246000fd5b7f4e487b7100000000000000000000000000000000000000000000000000000000600052601160045260246000fd5b6000611a538261156c565b9150611a5e8361156c565b9250828201905080821115611a7657611a75611a19565b5b92915050565b7f4f776e6572277320746f6b656e2062616c616e636520697320696e737566666960008201527f6369656e74000000000000000000000000000000000000000000000000000000602082015250565b6000611ad8602583611467565b9150611ae382611a7c565b604082019050919050565b60006020820190508181036000830152611b0781611acb565b9050919050565b7f4e487b7100000000000000000000000000000000000000000000000000000000600052602260045260246000fd5b60006002820490506001821680611b5557607f821691505b602082108103611b6857611b67611b0e565b5b50919050565b7f436f6e74726163742773206e61746976652062616c616e636520697320696e7360008201527f756666696369656e740000000000000000000000000000000000000000000000602082015250565b6000611bca602983611467565b9150611bd582611b6e565b604082019050919050565b60006020820190508181036000830152611bf981611bbd565b9050919050565b600081905092915050565b50565b6000611c1b600083611c00565b9150611c2682611c0b565b600082019050919050565b6000611c3c82611c0e565b9150819050919050565b7f4e617469766520746f6b656e207472616e73666572206661696c656400000000600082015250565b6000611c7c601c83611467565b9150611c8782611c46565b602082019050919050565b60006020820190508181036000830152611cab81611c6f565b9050919050565b600060208284031215611cc857611cc7611316565b5b6000611cd684828501611729565b91505092915050565b6000606082019050611cf460008301866117ab565b611d016020830185611618565b611d0e6040830184611618565b94935050505056fea26469706673582212204e5ce20089f4fb2538398b6b42ffb798ce05e2ac0fe587539c92617af0f385b064736f6c634300081c0033",
  "linkReferences": {},
  "deployedLinkReferences": {}
}