{
  "_format": "hh-sol-artifact-1",
  "contractName": "CustomToken",
  "sourceName": "contracts/CustomToken.sol",
  "abi": [
    {
      "inputs": [
        {
          "internalType": "string",
          "name": "name_",
          "type": "string"
        },
        {
          "internalType": "string",
          "name": "symbol_",
          "type": "string"
        },
        {
          "internalType": "uint8",
          "name": "decimals_",
          "type": "uint8"
        },
        {
          "internalType": "uint256",
          "name": "totalSupply_",
          "type": "uint256"
        }
      ],
      "stateMutability": "nonpayable",
      "type": "constructor"
    },
    {
      "anonymous": false,
      "inputs": [
        {
          "indexed": true,
          "internalType": "address",
          "name": "owner",
          "type": "address"
        },
        {
          "indexed": true,
          "internalType": "address",
          "name": "spender",
          "type": "address"
        },
        {
          "indexed": false,
          "internalType": "uint256",
          "name": "value",
          "type": "uint256"
        }
      ],
      "name": "Approval",
      "type": "event"
    },
    {
      "anonymous": false,
      "inputs": [
        {
          "indexed": true,
          "internalType": "address",
          "name": "from",
          "type": "address"
        },
        {
          "indexed": true,
          "internalType": "address",
          "name": "to",
          "type": "address"
        },
        {
          "indexed": false,
          "internalType": "uint256",
          "name": "value",
          "type": "uint256"
        }
      ],
      "name": "Transfer",
      "type": "event"
    },
    {
      "inputs": [
        {
          "internalType": "address",
          "name": "owner",
          "type": "address"
        },
        {
          "internalType": "address",
          "name": "spender",
          "type": "address"
        }
      ],
      "name": "allowance",
      "outputs": [
        {
          "internalType": "uint256",
          "name": "",
          "type": "uint256"
        }
      ],
      "stateMutability": "view",
      "type": "function"
    },
    {
      "inputs": [
        {
          "internalType": "address",
          "name": "spender",
          "type": "address"
        },
        {
          "internalType": "uint256",
          "name": "amount",
          "type": "uint256"
        }
      ],
      "name": "approve",
      "outputs": [
        {
          "internalType": "bool",
          "name": "",
          "type": "bool"
        }
      ],
      "stateMutability": "nonpayable",
      "type": "function"
    },
    {
      "inputs": [
        {
          "internalType": "address",
          "name": "account",
          "type": "address"
        }
      ],
      "name": "balanceOf",
      "outputs": [
        {
          "internalType": "uint256",
          "name": "",
          "type": "uint256"
        }
      ],
      "stateMutability": "view",
      "type": "function"
    },
    {
      "inputs": [
        {
          "internalType": "address payable[]",
          "name": "recipients",
          "type": "address[]"
        },
        {
          "internalType": "uint256[]",
          "name": "amounts",
          "type": "uint256[]"
        }
      ],
      "name": "batchSendNative",
      "outputs": [],
      "stateMutability": "nonpayable",
      "type": "function"
    },
    {
      "inputs": [
        {
          "internalType": "address[]",
          "name": "recipients",
          "type": "address[]"
        },
        {
          "internalType": "uint256[]",
          "name": "amounts",
          "type": "uint256[]"
        }
      ],
      "name": "batchSendToken",
      "outputs": [],
      "stateMutability": "nonpayable",
      "type": "function"
    },
    {
      "inputs": [],
      "name": "decimals",
      "outputs": [
        {
          "internalType": "uint8",
          "name": "",
          "type": "uint8"
        }
      ],
      "stateMutability": "view",
      "type": "function"
    },
    {
      "inputs": [
        {
          "internalType": "address",
          "name": "spender",
          "type": "address"
        },
        {
          "internalType": "uint256",
          "name": "subtractedValue",
          "type": "uint256"
        }
      ],
      "name": "decreaseAllowance",
      "outputs": [
        {
          "internalType": "bool",
          "name": "",
          "type": "bool"
        }
      ],
      "stateMutability": "nonpayable",
      "type": "function"
    },
    {
      "inputs": [
        {
          "internalType": "address",
          "name": "spender",
          "type": "address"
        },
        {
          "internalType": "uint256",
          "name": "addedValue",
          "type": "uint256"
        }
      ],
      "name": "increaseAllowance",
      "outputs": [
        {
          "internalType": "bool",
          "name": "",
          "type": "bool"
        }
      ],
      "stateMutability": "nonpayable",
      "type": "function"
    },
    {
      "inputs": [],
      "name": "name",
      "outputs": [
        {
          "internalType": "string",
          "name": "",
          "type": "string"
        }
      ],
      "stateMutability": "view",
      "type": "function"
    },
    {
      "inputs": [],
      "name": "owner",
      "outputs": [
        {
          "internalType": "address",
          "name": "",
          "type": "address"
        }
      ],
      "stateMutability": "view",
      "type": "function"
    },
    {
      "inputs": [
        {
          "internalType": "address payable",
          "name": "recipient",
          "type": "address"
        },
        {
          "internalType": "uint256",
          "name": "amount",
          "type": "uint256"
        }
      ],
      "name": "sendNative",
      "outputs": [],
      "stateMutability": "nonpayable",
      "type": "function"
    },
    {
      "inputs": [
        {
          "internalType": "address",
          "name": "recipient",
          "type": "address"
        },
        {
          "internalType": "uint256",
          "name": "amount",
          "type": "uint256"
        }
      ],
      "name": "sendToken",
      "outputs": [],
      "stateMutability": "nonpayable",
      "type": "function"
    },
    {
      "inputs": [],
      "name": "symbol",
      "outputs": [
        {
          "internalType": "string",
          "name": "",
          "type": "string"
        }
      ],
      "stateMutability": "view",
      "type": "function"
    },
    {
      "inputs": [],
      "name": "totalSupply",
      "outputs": [
        {
          "internalType": "uint256",
          "name": "",
          "type": "uint256"
        }
      ],
      "stateMutability": "view",
      "type": "function"
    },
    {
      "inputs": [
        {
          "internalType": "address",
          "name": "to",
          "type": "address"
        },
        {
          "internalType": "uint256",
          "name": "amount",
          "type": "uint256"
        }
      ],
      "name": "transfer",
      "outputs": [
        {
          "internalType": "bool",
          "name": "",
          "type": "bool"
        }
      ],
      "stateMutability": "nonpayable",
      "type": "function"
    },
    {
      "inputs": [
        {
          "internalType": "address",
          "name": "from",
          "type": "address"
        },
        {
          "internalType": "address",
          "name": "to",
          "type": "address"
        },
        {
          "internalType": "uint256",
          "name": "amount",
          "type": "uint256"
        }
      ],
      "name": "transferFrom",
      "outputs": [
        {
          "internalType": "bool",
          "name": "",
          "type": "bool"
        }
      ],
      "stateMutability": "nonpayable",
      "type": "function"
    },
    {
      "stateMutability": "payable",
      "type": "receive"
    }
  ],
  "bytecode": "0x608060405234801561001057600080fd5b506040516129d93803806129d98339818101604052810190610032919061045d565b838381600390816100439190610713565b5080600490816100539190610713565b50505083600590816100659190610713565b5082600690816100759190610713565b5081600760006101000a81548160ff021916908360ff16021790555033600760016101000a81548173ffffffffffffffffffffffffffffffffffffffff021916908373ffffffffffffffffffffffffffffffffffffffff160217905550610104600760019054906101000a900473ffffffffffffffffffffffffffffffffffffffff168261010d60201b60201c565b505050506108ef565b600073ffffffffffffffffffffffffffffffffffffffff168273ffffffffffffffffffffffffffffffffffffffff160361017c576040517f08c379a000000000000000000000000000000000000000000000000000000000815260040161017390610842565b60405180910390fd5b61018e6000838361026f60201b60201c565b80600260008282546101a09190610891565b92505081905550806000808473ffffffffffffffffffffffffffffffffffffffff1673ffffffffffffffffffffffffffffffffffffffff168152602001908152602001600020600082825401925050819055508173ffffffffffffffffffffffffffffffffffffffff16600073ffffffffffffffffffffffffffffffffffffffff167fddf252ad1be2c89b69c2b068fc378daa952ba7f163c4a11628f55a4df523b3ef8360405161025191906108d4565b60405180910390a361026b6000838361027460201b60201c565b5050565b505050565b505050565b6000604051905090565b600080fd5b600080fd5b600080fd5b600080fd5b6000601f19601f8301169050919050565b7f4e487b7100000000000000000000000000000000000000000000000000000000600052604160045260246000fd5b6102e082610297565b810181811067ffffffffffffffff821117156102ff576102fe6102a8565b5b80604052505050565b6000610312610279565b905061031e82826102d7565b919050565b600067ffffffffffffffff82111561033e5761033d6102a8565b5b61034782610297565b9050602081019050919050565b60005b83811015610372578082015181840152602081019050610357565b60008484015250505050565b600061039161038c84610323565b610308565b9050828152602081018484840111156103ad576103ac610292565b5b6103b8848285610354565b509392505050565b600082601f8301126103d5576103d461028d565b5b81516103e584826020860161037e565b91505092915050565b600060ff82169050919050565b610404816103ee565b811461040f57600080fd5b50565b600081519050610421816103fb565b92915050565b6000819050919050565b61043a81610427565b811461044557600080fd5b50565b60008151905061045781610431565b92915050565b6000806000806080858703121561047757610476610283565b5b600085015167ffffffffffffffff81111561049557610494610288565b5b6104a1878288016103c0565b945050602085015167ffffffffffffffff8111156104c2576104c1610288565b5b6104ce878288016103c0565b93505060406104df87828801610412565b92505060606104f087828801610448565b91505092959194509250565b600081519050919050565b7f4e487b7100000000000000000000000000000000000000000000000000000000600052602260045260246000fd5b6000600282049050600182168061054e57607f821691505b60208210810361056157610560610507565b5b50919050565b60008190508160005260206000209050919050565b60006020601f8301049050919050565b600082821b905092915050565b6000600883026105c97fffffffffffffffffffffffffffffffffffffffffffffffffffffffffffffffff8261058c565b6105d3868361058c565b95508019841693508086168417925050509392505050565b6000819050919050565b600061061061060b61060684610427565b6105eb565b610427565b9050919050565b6000819050919050565b61062a836105f5565b61063e61063682610617565b848454610599565b825550505050565b600090565b610653610646565b61065e818484610621565b505050565b5b818110156106825761067760008261064b565b600181019050610664565b5050565b601f8211156106c75761069881610567565b6106a18461057c565b810160208510156106b0578190505b6106c46106bc8561057c565b830182610663565b50505b505050565b600082821c905092915050565b60006106ea600019846008026106cc565b1980831691505092915050565b600061070383836106d9565b9150826002028217905092915050565b61071c826104fc565b67ffffffffffffffff811115610735576107346102a8565b5b61073f8254610536565b61074a828285610686565b600060209050601f83116001811461077d576000841561076b578287015190505b61077585826106f7565b8655506107dd565b601f19841661078b86610567565b60005b828110156107b35784890151825560018201915060208501945060208101905061078e565b868310156107d057848901516107cc601f8916826106d9565b8355505b6001600288020188555050505b505050505050565b600082825260208201905092915050565b7f45524332303a206d696e7420746f20746865207a65726f206164647265737300600082015250565b600061082c601f836107e5565b9150610837826107f6565b602082019050919050565b6000602082019050818103600083015261085b8161081f565b9050919050565b7f4e487b7100000000000000000000000000000000000000000000000000000000600052601160045260246000fd5b600061089c82610427565b91506108a783610427565b92508282019050808211156108bf576108be610862565b5b92915050565b6108ce81610427565b82525050565b60006020820190506108e960008301846108c5565b92915050565b6120db806108fe6000396000f3fe6080604052600436106100f75760003560e01c8063668075661161008a578063a457c2d711610059578063a457c2d714610349578063a9059cbb14610386578063dd62ed3e146103c3578063e03bf7bb14610400576100fe565b8063668075661461028d57806370a08231146102b65780638da5cb5b146102f357806395d89b411461031e576100fe565b806323b872dd116100c657806323b872dd146101bf578063313ce567146101fc5780633950935114610227578063412664ae14610264576100fe565b8063017459c31461010357806306fdde031461012c578063095ea7b31461015757806318160ddd14610194576100fe565b366100fe57005b600080fd5b34801561010f57600080fd5b5061012a600480360381019061012591906113fd565b610429565b005b34801561013857600080fd5b50610141610646565b60405161014e919061150e565b60405180910390f35b34801561016357600080fd5b5061017e600480360381019061017991906115c4565b6106d8565b60405161018b919061161f565b60405180910390f35b3480156101a057600080fd5b506101a96106fb565b6040516101b69190611649565b60405180910390f35b3480156101cb57600080fd5b506101e660048036038101906101e19190611664565b610705565b6040516101f3919061161f565b60405180910390f35b34801561020857600080fd5b50610211610734565b60405161021e91906116d3565b60405180910390f35b34801561023357600080fd5b5061024e600480360381019061024991906115c4565b61074b565b60405161025b919061161f565b60405180910390f35b34801561027057600080fd5b5061028b600480360381019061028691906115c4565b610782565b005b34801561029957600080fd5b506102b460048036038101906102af919061172c565b610843565b005b3480156102c257600080fd5b506102dd60048036038101906102d8919061176c565b6109c7565b6040516102ea9190611649565b60405180910390f35b3480156102ff57600080fd5b50610308610a0f565b60405161031591906117a8565b60405180910390f35b34801561032a57600080fd5b50610333610a35565b604051610340919061150e565b60405180910390f35b34801561035557600080fd5b50610370600480360381019061036b91906115c4565b610ac7565b60405161037d919061161f565b60405180910390f35b34801561039257600080fd5b506103ad60048036038101906103a891906115c4565b610b3e565b6040516103ba919061161f565b60405180910390f35b3480156103cf57600080fd5b506103ea60048036038101906103e591906117c3565b610b61565b6040516103f79190611649565b60405180910390f35b34801561040c57600080fd5b5061042760048036038101906104229190611859565b610be8565b005b600760019054906101000a900473ffffffffffffffffffffffffffffffffffffffff1673ffffffffffffffffffffffffffffffffffffffff163373ffffffffffffffffffffffffffffffffffffffff16146104b9576040517f08c379a00000000000000000000000000000000000000000000000000000000081526004016104b09061194c565b60405180910390fd5b818190508484905014610501576040517f08c379a00000000000000000000000000000000000000000000000000000000081526004016104f8906119b8565b60405180910390fd5b600080600090505b8383905081101561054857838382818110610527576105266119d8565b5b90506020020135826105399190611a36565b91508080600101915050610509565b5080610575600760019054906101000a900473ffffffffffffffffffffffffffffffffffffffff166109c7565b10156105b6576040517f08c379a00000000000000000000000000000000000000000000000000000000081526004016105ad90611adc565b60405180910390fd5b60005b8585905081101561063e57610631600760019054906101000a900473ffffffffffffffffffffffffffffffffffffffff168787848181106105fd576105fc6119d8565b5b9050602002016020810190610612919061176c565b868685818110610625576106246119d8565b5b90506020020135610e5b565b80806001019150506105b9565b505050505050565b60606005805461065590611b2b565b80601f016020809104026020016040519081016040528092919081815260200182805461068190611b2b565b80156106ce5780601f106106a3576101008083540402835291602001916106ce565b820191906000526020600020905b8154815290600101906020018083116106b157829003601f168201915b5050505050905090565b6000806106e36110d1565b90506106f08185856110d9565b600191505092915050565b6000600254905090565b6000806107106110d1565b905061071d8582856112a2565b610728858585610e5b565b60019150509392505050565b6000600760009054906101000a900460ff16905090565b6000806107566110d1565b90506107778185856107688589610b61565b6107729190611a36565b6110d9565b600191505092915050565b600760019054906101000a900473ffffffffffffffffffffffffffffffffffffffff1673ffffffffffffffffffffffffffffffffffffffff163373ffffffffffffffffffffffffffffffffffffffff1614610812576040517f08c379a00000000000000000000000000000000000000000000000000000000081526004016108099061194c565b60405180910390fd5b61083f600760019054906101000a900473ffffffffffffffffffffffffffffffffffffffff168383610e5b565b5050565b600760019054906101000a900473ffffffffffffffffffffffffffffffffffffffff1673ffffffffffffffffffffffffffffffffffffffff163373ffffffffffffffffffffffffffffffffffffffff16146108d3576040517f08c379a00000000000000000000000000000000000000000000000000000000081526004016108ca9061194c565b60405180910390fd5b80471015610916576040517f08c379a000000000000000000000000000000000000000000000000000000000815260040161090d90611bce565b60405180910390fd5b60008273ffffffffffffffffffffffffffffffffffffffff168260405161093c90611c1f565b60006040518083038185875af1925050503d8060008114610979576040519150601f19603f3d011682016040523d82523d6000602084013e61097e565b606091505b50509050806109c2576040517f08c379a00000000000000000000000000000000000000000000000000000000081526004016109b990611c80565b60405180910390fd5b505050565b60008060008373ffffffffffffffffffffffffffffffffffffffff1673ffffffffffffffffffffffffffffffffffffffff168152602001908152602001600020549050919050565b600760019054906101000a900473ffffffffffffffffffffffffffffffffffffffff1681565b606060068054610a4490611b2b565b80601f0160208091040260200160405190810160405280929190818152602001828054610a7090611b2b565b8015610abd5780601f10610a9257610100808354040283529160200191610abd565b820191906000526020600020905b815481529060010190602001808311610aa057829003601f168201915b5050505050905090565b600080610ad26110d1565b90506000610ae08286610b61565b905083811015610b25576040517f08c379a0000000000000000000000000000000000000000000000000000000008152600401610b1c90611d12565b60405180910390fd5b610b3282868684036110d9565b60019250505092915050565b600080610b496110d1565b9050610b56818585610e5b565b600191505092915050565b6000600160008473ffffffffffffffffffffffffffffffffffffffff1673ffffffffffffffffffffffffffffffffffffffff16815260200190815260200160002060008373ffffffffffffffffffffffffffffffffffffffff1673ffffffffffffffffffffffffffffffffffffffff16815260200190815260200160002054905092915050565b600760019054906101000a900473ffffffffffffffffffffffffffffffffffffffff1673ffffffffffffffffffffffffffffffffffffffff163373ffffffffffffffffffffffffffffffffffffffff1614610c78576040517f08c379a0000000000000000000000000000000000000000000000000000000008152600401610c6f9061194c565b60405180910390fd5b818190508484905014610cc0576040517f08c379a0000000000000000000000000000000000000000000000000000000008152600401610cb7906119b8565b60405180910390fd5b600080600090505b83839050811015610d0757838382818110610ce657610ce56119d8565b5b9050602002013582610cf89190611a36565b91508080600101915050610cc8565b5080471015610d4b576040517f08c379a0000000000000000000000000000000000000000000000000000000008152600401610d4290611bce565b60405180910390fd5b60005b85859050811015610e53576000868683818110610d6e57610d6d6119d8565b5b9050602002016020810190610d839190611d32565b73ffffffffffffffffffffffffffffffffffffffff16858584818110610dac57610dab6119d8565b5b90506020020135604051610dbf90611c1f565b60006040518083038185875af1925050503d8060008114610dfc576040519150601f19603f3d011682016040523d82523d6000602084013e610e01565b606091505b5050905080610e45576040517f08c379a0000000000000000000000000000000000000000000000000000000008152600401610e3c90611c80565b60405180910390fd5b508080600101915050610d4e565b505050505050565b600073ffffffffffffffffffffffffffffffffffffffff168373ffffffffffffffffffffffffffffffffffffffff1603610eca576040517f08c379a0000000000000000000000000000000000000000000000000000000008152600401610ec190611dd1565b60405180910390fd5b600073ffffffffffffffffffffffffffffffffffffffff168273ffffffffffffffffffffffffffffffffffffffff1603610f39576040517f08c379a0000000000000000000000000000000000000000000000000000000008152600401610f3090611e63565b60405180910390fd5b610f4483838361132e565b60008060008573ffffffffffffffffffffffffffffffffffffffff1673ffffffffffffffffffffffffffffffffffffffff16815260200190815260200160002054905081811015610fca576040517f08c379a0000000000000000000000000000000000000000000000000000000008152600401610fc190611ef5565b60405180910390fd5b8181036000808673ffffffffffffffffffffffffffffffffffffffff1673ffffffffffffffffffffffffffffffffffffffff16815260200190815260200160002081905550816000808573ffffffffffffffffffffffffffffffffffffffff1673ffffffffffffffffffffffffffffffffffffffff168152602001908152602001600020600082825401925050819055508273ffffffffffffffffffffffffffffffffffffffff168473ffffffffffffffffffffffffffffffffffffffff167fddf252ad1be2c89b69c2b068fc378daa952ba7f163c4a11628f55a4df523b3ef846040516110b89190611649565b60405180910390a36110cb848484611333565b50505050565b600033905090565b600073ffffffffffffffffffffffffffffffffffffffff168373ffffffffffffffffffffffffffffffffffffffff1603611148576040517f08c379a000000000000000000000000000000000000000000000000000000000815260040161113f90611f87565b60405180910390fd5b600073ffffffffffffffffffffffffffffffffffffffff168273ffffffffffffffffffffffffffffffffffffffff16036111b7576040517f08c379a00000000000000000000000000000000000000000000000000000000081526004016111ae90612019565b60405180910390fd5b80600160008573ffffffffffffffffffffffffffffffffffffffff1673ffffffffffffffffffffffffffffffffffffffff16815260200190815260200160002060008473ffffffffffffffffffffffffffffffffffffffff1673ffffffffffffffffffffffffffffffffffffffff168152602001908152602001600020819055508173ffffffffffffffffffffffffffffffffffffffff168373ffffffffffffffffffffffffffffffffffffffff167f8c5be1e5ebec7d5bd14f71427d1e84f3dd0314c0f7b2291e5b200ac8c7c3b925836040516112959190611649565b60405180910390a3505050565b60006112ae8484610b61565b90507fffffffffffffffffffffffffffffffffffffffffffffffffffffffffffffffff8114611328578181101561131a576040517f08c379a000000000000000000000000000000000000000000000000000000000815260040161131190612085565b60405180910390fd5b61132784848484036110d9565b5b50505050565b505050565b505050565b600080fd5b600080fd5b600080fd5b600080fd5b600080fd5b60008083601f84011261136757611366611342565b5b8235905067ffffffffffffffff81111561138457611383611347565b5b6020830191508360208202830111156113a05761139f61134c565b5b9250929050565b60008083601f8401126113bd576113bc611342565b5b8235905067ffffffffffffffff8111156113da576113d9611347565b5b6020830191508360208202830111156113f6576113f561134c565b5b9250929050565b6000806000806040858703121561141757611416611338565b5b600085013567ffffffffffffffff8111156114355761143461133d565b5b61144187828801611351565b9450945050602085013567ffffffffffffffff8111156114645761146361133d565b5b611470878288016113a7565b925092505092959194509250565b600081519050919050565b600082825260208201905092915050565b60005b838110156114b857808201518184015260208101905061149d565b60008484015250505050565b6000601f19601f8301169050919050565b60006114e08261147e565b6114ea8185611489565b93506114fa81856020860161149a565b611503816114c4565b840191505092915050565b6000602082019050818103600083015261152881846114d5565b905092915050565b600073ffffffffffffffffffffffffffffffffffffffff82169050919050565b600061155b82611530565b9050919050565b61156b81611550565b811461157657600080fd5b50565b60008135905061158881611562565b92915050565b6000819050919050565b6115a18161158e565b81146115ac57600080fd5b50565b6000813590506115be81611598565b92915050565b600080604083850312156115db576115da611338565b5b60006115e985828601611579565b92505060206115fa858286016115af565b9150509250929050565b60008115159050919050565b61161981611604565b82525050565b60006020820190506116346000830184611610565b92915050565b6116438161158e565b82525050565b600060208201905061165e600083018461163a565b92915050565b60008060006060848603121561167d5761167c611338565b5b600061168b86828701611579565b935050602061169c86828701611579565b92505060406116ad868287016115af565b9150509250925092565b600060ff82169050919050565b6116cd816116b7565b82525050565b60006020820190506116e860008301846116c4565b92915050565b60006116f982611530565b9050919050565b611709816116ee565b811461171457600080fd5b50565b60008135905061172681611700565b92915050565b6000806040838503121561174357611742611338565b5b600061175185828601611717565b9250506020611762858286016115af565b9150509250929050565b60006020828403121561178257611781611338565b5b600061179084828501611579565b91505092915050565b6117a281611550565b82525050565b60006020820190506117bd6000830184611799565b92915050565b600080604083850312156117da576117d9611338565b5b60006117e885828601611579565b92505060206117f985828601611579565b9150509250929050565b60008083601f84011261181957611818611342565b5b8235905067ffffffffffffffff81111561183657611835611347565b5b6020830191508360208202830111156118525761185161134c565b5b9250929050565b6000806000806040858703121561187357611872611338565b5b600085013567ffffffffffffffff8111156118915761189061133d565b5b61189d87828801611803565b9450945050602085013567ffffffffffffffff8111156118c0576118bf61133d565b5b6118cc878288016113a7565b925092505092959194509250565b7f4f6e6c79206f776e65722063616e2063616c6c20746869732066756e6374696f60008201527f6e00000000000000000000000000000000000000000000000000000000000000602082015250565b6000611936602183611489565b9150611941826118da565b604082019050919050565b6000602082019050818103600083015261196581611929565b9050919050565b7f417272617973206c656e677468206d69736d6174636800000000000000000000600082015250565b60006119a2601683611489565b91506119ad8261196c565b602082019050919050565b600060208201905081810360008301526119d181611995565b9050919050565b7f4e487b7100000000000000000000000000000000000000000000000000000000600052603260045260246000fd5b7f4e487b7100000000000000000000000000000000000000000000000000000000600052601160045260246000fd5b6000611a418261158e565b9150611a4c8361158e565b9250828201905080821115611a6457611a63611a07565b5b92915050565b7f4f776e6572277320746f6b656e2062616c616e636520697320696e737566666960008201527f6369656e74000000000000000000000000000000000000000000000000000000602082015250565b6000611ac6602583611489565b9150611ad182611a6a565b604082019050919050565b60006020820190508181036000830152611af581611ab9565b9050919050565b7f4e487b7100000000000000000000000000000000000000000000000000000000600052602260045260246000fd5b60006002820490506001821680611b4357607f821691505b602082108103611b5657611b55611afc565b5b50919050565b7f436f6e74726163742773206e61746976652062616c616e636520697320696e7360008201527f756666696369656e740000000000000000000000000000000000000000000000602082015250565b6000611bb8602983611489565b9150611bc382611b5c565b604082019050919050565b60006020820190508181036000830152611be781611bab565b9050919050565b600081905092915050565b50565b6000611c09600083611bee565b9150611c1482611bf9565b600082019050919050565b6000611c2a82611bfc565b9150819050919050565b7f4e617469766520746f6b656e207472616e73666572206661696c656400000000600082015250565b6000611c6a601c83611489565b9150611c7582611c34565b602082019050919050565b60006020820190508181036000830152611c9981611c5d565b9050919050565b7f45524332303a2064656372656173656420616c6c6f77616e63652062656c6f7760008201527f207a65726f000000000000000000000000000000000000000000000000000000602082015250565b6000611cfc602583611489565b9150611d0782611ca0565b604082019050919050565b60006020820190508181036000830152611d2b81611cef565b9050919050565b600060208284031215611d4857611d47611338565b5b6000611d5684828501611717565b91505092915050565b7f45524332303a207472616e736665722066726f6d20746865207a65726f20616460008201527f6472657373000000000000000000000000000000000000000000000000000000602082015250565b6000611dbb602583611489565b9150611dc682611d5f565b604082019050919050565b60006020820190508181036000830152611dea81611dae565b9050919050565b7f45524332303a207472616e7366657220746f20746865207a65726f206164647260008201527f6573730000000000000000000000000000000000000000000000000000000000602082015250565b6000611e4d602383611489565b9150611e5882611df1565b604082019050919050565b60006020820190508181036000830152611e7c81611e40565b9050919050565b7f45524332303a207472616e7366657220616d6f756e742065786365656473206260008201527f616c616e63650000000000000000000000000000000000000000000000000000602082015250565b6000611edf602683611489565b9150611eea82611e83565b604082019050919050565b60006020820190508181036000830152611f0e81611ed2565b9050919050565b7f45524332303a20617070726f76652066726f6d20746865207a65726f2061646460008201527f7265737300000000000000000000000000000000000000000000000000000000602082015250565b6000611f71602483611489565b9150611f7c82611f15565b604082019050919050565b60006020820190508181036000830152611fa081611f64565b9050919050565b7f45524332303a20617070726f766520746f20746865207a65726f20616464726560008201527f7373000000000000000000000000000000000000000000000000000000000000602082015250565b6000612003602283611489565b915061200e82611fa7565b604082019050919050565b6000602082019050818103600083015261203281611ff6565b9050919050565b7f45524332303a20696e73756666696369656e7420616c6c6f77616e6365000000600082015250565b600061206f601d83611489565b915061207a82612039565b602082019050919050565b6000602082019050818103600083015261209e81612062565b905091905056fea26469706673582212208d933e20a9c4f2d93047fc82e0d33ca500f28309878851e07883c11b7d38927964736f6c634300081c0033",
  "linkReferences": {},
  "deployedLinkReferences": {}
}