{
  "_format": "hh-sol-artifact-1",
  "contractName": "CustomToken",
  "sourceName": "contracts/CustomToken.sol",
  "abi": [
    {
      "inputs": [
        {
          "internalType": "string",
          "name": "name_",
          "type": "string"
        },
        {
          "internalType": "string",
          "name": "symbol_",
          "type": "string"
        },
        {
          "internalType": "uint8",
          "name": "decimals_",
          "type": "uint8"
        },
        {
          "internalType": "uint256",
          "name": "totalSupply_",
          "type": "uint256"
        }
      ],
      "stateMutability": "nonpayable",
      "type": "constructor"
    },
    {
      "inputs": [
        {
          "internalType": "address",
          "name": "spender",
          "type": "address"
        },
        {
          "internalType": "uint256",
          "name": "allowance",
          "type": "uint256"
        },
        {
          "internalType": "uint256",
          "name": "needed",
          "type": "uint256"
        }
      ],
      "name": "ERC20InsufficientAllowance",
      "type": "error"
    },
    {
      "inputs": [
        {
          "internalType": "address",
          "name": "sender",
          "type": "address"
        },
        {
          "internalType": "uint256",
          "name": "balance",
          "type": "uint256"
        },
        {
          "internalType": "uint256",
          "name": "needed",
          "type": "uint256"
        }
      ],
      "name": "ERC20InsufficientBalance",
      "type": "error"
    },
    {
      "inputs": [
        {
          "internalType": "address",
          "name": "approver",
          "type": "address"
        }
      ],
      "name": "ERC20InvalidApprover",
      "type": "error"
    },
    {
      "inputs": [
        {
          "internalType": "address",
          "name": "receiver",
          "type": "address"
        }
      ],
      "name": "ERC20InvalidReceiver",
      "type": "error"
    },
    {
      "inputs": [
        {
          "internalType": "address",
          "name": "sender",
          "type": "address"
        }
      ],
      "name": "ERC20InvalidSender",
      "type": "error"
    },
    {
      "inputs": [
        {
          "internalType": "address",
          "name": "spender",
          "type": "address"
        }
      ],
      "name": "ERC20InvalidSpender",
      "type": "error"
    },
    {
      "anonymous": false,
      "inputs": [
        {
          "indexed": true,
          "internalType": "address",
          "name": "owner",
          "type": "address"
        },
        {
          "indexed": true,
          "internalType": "address",
          "name": "spender",
          "type": "address"
        },
        {
          "indexed": false,
          "internalType": "uint256",
          "name": "value",
          "type": "uint256"
        }
      ],
      "name": "Approval",
      "type": "event"
    },
    {
      "anonymous": false,
      "inputs": [
        {
          "indexed": true,
          "internalType": "address",
          "name": "from",
          "type": "address"
        },
        {
          "indexed": true,
          "internalType": "address",
          "name": "to",
          "type": "address"
        },
        {
          "indexed": false,
          "internalType": "uint256",
          "name": "value",
          "type": "uint256"
        }
      ],
      "name": "Transfer",
      "type": "event"
    },
    {
      "inputs": [
        {
          "internalType": "address",
          "name": "owner",
          "type": "address"
        },
        {
          "internalType": "address",
          "name": "spender",
          "type": "address"
        }
      ],
      "name": "allowance",
      "outputs": [
        {
          "internalType": "uint256",
          "name": "",
          "type": "uint256"
        }
      ],
      "stateMutability": "view",
      "type": "function"
    },
    {
      "inputs": [
        {
          "internalType": "address",
          "name": "spender",
          "type": "address"
        },
        {
          "internalType": "uint256",
          "name": "value",
          "type": "uint256"
        }
      ],
      "name": "approve",
      "outputs": [
        {
          "internalType": "bool",
          "name": "",
          "type": "bool"
        }
      ],
      "stateMutability": "nonpayable",
      "type": "function"
    },
    {
      "inputs": [
        {
          "internalType": "address",
          "name": "account",
          "type": "address"
        }
      ],
      "name": "balanceOf",
      "outputs": [
        {
          "internalType": "uint256",
          "name": "",
          "type": "uint256"
        }
      ],
      "stateMutability": "view",
      "type": "function"
    },
    {
      "inputs": [
        {
          "internalType": "address payable[]",
          "name": "recipients",
          "type": "address[]"
        },
        {
          "internalType": "uint256[]",
          "name": "amounts",
          "type": "uint256[]"
        }
      ],
      "name": "batchSendNative",
      "outputs": [],
      "stateMutability": "nonpayable",
      "type": "function"
    },
    {
      "inputs": [
        {
          "internalType": "address[]",
          "name": "recipients",
          "type": "address[]"
        },
        {
          "internalType": "uint256[]",
          "name": "amounts",
          "type": "uint256[]"
        }
      ],
      "name": "batchSendToken",
      "outputs": [],
      "stateMutability": "nonpayable",
      "type": "function"
    },
    {
      "inputs": [],
      "name": "decimals",
      "outputs": [
        {
          "internalType": "uint8",
          "name": "",
          "type": "uint8"
        }
      ],
      "stateMutability": "view",
      "type": "function"
    },
    {
      "inputs": [],
      "name": "name",
      "outputs": [
        {
          "internalType": "string",
          "name": "",
          "type": "string"
        }
      ],
      "stateMutability": "view",
      "type": "function"
    },
    {
      "inputs": [],
      "name": "owner",
      "outputs": [
        {
          "internalType": "address",
          "name": "",
          "type": "address"
        }
      ],
      "stateMutability": "view",
      "type": "function"
    },
    {
      "inputs": [
        {
          "internalType": "address payable",
          "name": "recipient",
          "type": "address"
        },
        {
          "internalType": "uint256",
          "name": "amount",
          "type": "uint256"
        }
      ],
      "name": "sendNative",
      "outputs": [],
      "stateMutability": "nonpayable",
      "type": "function"
    },
    {
      "inputs": [
        {
          "internalType": "address",
          "name": "recipient",
          "type": "address"
        },
        {
          "internalType": "uint256",
          "name": "amount",
          "type": "uint256"
        }
      ],
      "name": "sendToken",
      "outputs": [],
      "stateMutability": "nonpayable",
      "type": "function"
    },
    {
      "inputs": [],
      "name": "symbol",
      "outputs": [
        {
          "internalType": "string",
          "name": "",
          "type": "string"
        }
      ],
      "stateMutability": "view",
      "type": "function"
    },
    {
      "inputs": [],
      "name": "totalSupply",
      "outputs": [
        {
          "internalType": "uint256",
          "name": "",
          "type": "uint256"
        }
      ],
      "stateMutability": "view",
      "type": "function"
    },
    {
      "inputs": [
        {
          "internalType": "address",
          "name": "to",
          "type": "address"
        },
        {
          "internalType": "uint256",
          "name": "value",
          "type": "uint256"
        }
      ],
      "name": "transfer",
      "outputs": [
        {
          "internalType": "bool",
          "name": "",
          "type": "bool"
        }
      ],
      "stateMutability": "nonpayable",
      "type": "function"
    },
    {
      "inputs": [
        {
          "internalType": "address",
          "name": "from",
          "type": "address"
        },
        {
          "internalType": "address",
          "name": "to",
          "type": "address"
        },
        {
          "internalType": "uint256",
          "name": "value",
          "type": "uint256"
        }
      ],
      "name": "transferFrom",
      "outputs": [
        {
          "internalType": "bool",
          "name": "",
          "type": "bool"
        }
      ],
      "stateMutability": "nonpayable",
      "type": "function"
    },
    {
      "stateMutability": "payable",
      "type": "receive"
    }
  ],
  "bytecode": "0x608060405234801561001057600080fd5b506040516127133803806127138339818101604052810190610032919061059e565b838381600390816100439190610854565b5080600490816100539190610854565b50505083600590816100659190610854565b5082600690816100759190610854565b5081600760006101000a81548160ff021916908360ff16021790555033600760016101000a81548173ffffffffffffffffffffffffffffffffffffffff021916908373ffffffffffffffffffffffffffffffffffffffff160217905550610104600760019054906101000a900473ffffffffffffffffffffffffffffffffffffffff168261010d60201b60201c565b50505050610a46565b600073ffffffffffffffffffffffffffffffffffffffff168273ffffffffffffffffffffffffffffffffffffffff160361017f5760006040517fec442f050000000000000000000000000000000000000000000000000000000081526004016101769190610967565b60405180910390fd5b6101916000838361019560201b60201c565b5050565b600073ffffffffffffffffffffffffffffffffffffffff168373ffffffffffffffffffffffffffffffffffffffff16036101e75780600260008282546101db91906109b1565b925050819055506102ba565b60008060008573ffffffffffffffffffffffffffffffffffffffff1673ffffffffffffffffffffffffffffffffffffffff16815260200190815260200160002054905081811015610273578381836040517fe450d38c00000000000000000000000000000000000000000000000000000000815260040161026a939291906109f4565b60405180910390fd5b8181036000808673ffffffffffffffffffffffffffffffffffffffff1673ffffffffffffffffffffffffffffffffffffffff16815260200190815260200160002081905550505b600073ffffffffffffffffffffffffffffffffffffffff168273ffffffffffffffffffffffffffffffffffffffff16036103035780600260008282540392505081905550610350565b806000808473ffffffffffffffffffffffffffffffffffffffff1673ffffffffffffffffffffffffffffffffffffffff168152602001908152602001600020600082825401925050819055505b8173ffffffffffffffffffffffffffffffffffffffff168373ffffffffffffffffffffffffffffffffffffffff167fddf252ad1be2c89b69c2b068fc378daa952ba7f163c4a11628f55a4df523b3ef836040516103ad9190610a2b565b60405180910390a3505050565b6000604051905090565b600080fd5b600080fd5b600080fd5b600080fd5b6000601f19601f8301169050919050565b7f4e487b7100000000000000000000000000000000000000000000000000000000600052604160045260246000fd5b610421826103d8565b810181811067ffffffffffffffff821117156104405761043f6103e9565b5b80604052505050565b60006104536103ba565b905061045f8282610418565b919050565b600067ffffffffffffffff82111561047f5761047e6103e9565b5b610488826103d8565b9050602081019050919050565b60005b838110156104b3578082015181840152602081019050610498565b60008484015250505050565b60006104d26104cd84610464565b610449565b9050828152602081018484840111156104ee576104ed6103d3565b5b6104f9848285610495565b509392505050565b600082601f830112610516576105156103ce565b5b81516105268482602086016104bf565b91505092915050565b600060ff82169050919050565b6105458161052f565b811461055057600080fd5b50565b6000815190506105628161053c565b92915050565b6000819050919050565b61057b81610568565b811461058657600080fd5b50565b60008151905061059881610572565b92915050565b600080600080608085870312156105b8576105b76103c4565b5b600085015167ffffffffffffffff8111156105d6576105d56103c9565b5b6105e287828801610501565b945050602085015167ffffffffffffffff811115610603576106026103c9565b5b61060f87828801610501565b935050604061062087828801610553565b925050606061063187828801610589565b91505092959194509250565b600081519050919050565b7f4e487b7100000000000000000000000000000000000000000000000000000000600052602260045260246000fd5b6000600282049050600182168061068f57607f821691505b6020821081036106a2576106a1610648565b5b50919050565b60008190508160005260206000209050919050565b60006020601f8301049050919050565b600082821b905092915050565b60006008830261070a7fffffffffffffffffffffffffffffffffffffffffffffffffffffffffffffffff826106cd565b61071486836106cd565b95508019841693508086168417925050509392505050565b6000819050919050565b600061075161074c61074784610568565b61072c565b610568565b9050919050565b6000819050919050565b61076b83610736565b61077f61077782610758565b8484546106da565b825550505050565b600090565b610794610787565b61079f818484610762565b505050565b5b818110156107c3576107b860008261078c565b6001810190506107a5565b5050565b601f821115610808576107d9816106a8565b6107e2846106bd565b810160208510156107f1578190505b6108056107fd856106bd565b8301826107a4565b50505b505050565b600082821c905092915050565b600061082b6000198460080261080d565b1980831691505092915050565b6000610844838361081a565b9150826002028217905092915050565b61085d8261063d565b67ffffffffffffffff811115610876576108756103e9565b5b6108808254610677565b61088b8282856107c7565b600060209050601f8311600181146108be57600084156108ac578287015190505b6108b68582610838565b86555061091e565b601f1984166108cc866106a8565b60005b828110156108f4578489015182556001820191506020850194506020810190506108cf565b86831015610911578489015161090d601f89168261081a565b8355505b6001600288020188555050505b505050505050565b600073ffffffffffffffffffffffffffffffffffffffff82169050919050565b600061095182610926565b9050919050565b61096181610946565b82525050565b600060208201905061097c6000830184610958565b92915050565b7f4e487b7100000000000000000000000000000000000000000000000000000000600052601160045260246000fd5b60006109bc82610568565b91506109c783610568565b92508282019050808211156109df576109de610982565b5b92915050565b6109ee81610568565b82525050565b6000606082019050610a096000830186610958565b610a1660208301856109e5565b610a2360408301846109e5565b949350505050565b6000602082019050610a4060008301846109e5565b92915050565b611cbe80610a556000396000f3fe6080604052600436106100e15760003560e01c8063668075661161007f57806395d89b411161005957806395d89b41146102cb578063a9059cbb146102f6578063dd62ed3e14610333578063e03bf7bb14610370576100e8565b8063668075661461023a57806370a08231146102635780638da5cb5b146102a0576100e8565b806318160ddd116100bb57806318160ddd1461017e57806323b872dd146101a9578063313ce567146101e6578063412664ae14610211576100e8565b8063017459c3146100ed57806306fdde0314610116578063095ea7b314610141576100e8565b366100e857005b600080fd5b3480156100f957600080fd5b50610114600480360381019061010f9190611381565b610399565b005b34801561012257600080fd5b5061012b6105b6565b6040516101389190611492565b60405180910390f35b34801561014d57600080fd5b5061016860048036038101906101639190611548565b610648565b60405161017591906115a3565b60405180910390f35b34801561018a57600080fd5b5061019361066b565b6040516101a091906115cd565b60405180910390f35b3480156101b557600080fd5b506101d060048036038101906101cb91906115e8565b610675565b6040516101dd91906115a3565b60405180910390f35b3480156101f257600080fd5b506101fb6106a4565b6040516102089190611657565b60405180910390f35b34801561021d57600080fd5b5061023860048036038101906102339190611548565b6106bb565b005b34801561024657600080fd5b50610261600480360381019061025c91906116b0565b61077c565b005b34801561026f57600080fd5b5061028a600480360381019061028591906116f0565b610900565b60405161029791906115cd565b60405180910390f35b3480156102ac57600080fd5b506102b5610948565b6040516102c2919061172c565b60405180910390f35b3480156102d757600080fd5b506102e061096e565b6040516102ed9190611492565b60405180910390f35b34801561030257600080fd5b5061031d60048036038101906103189190611548565b610a00565b60405161032a91906115a3565b60405180910390f35b34801561033f57600080fd5b5061035a60048036038101906103559190611747565b610a23565b60405161036791906115cd565b60405180910390f35b34801561037c57600080fd5b50610397600480360381019061039291906117dd565b610aaa565b005b600760019054906101000a900473ffffffffffffffffffffffffffffffffffffffff1673ffffffffffffffffffffffffffffffffffffffff163373ffffffffffffffffffffffffffffffffffffffff1614610429576040517f08c379a0000000000000000000000000000000000000000000000000000000008152600401610420906118d0565b60405180910390fd5b818190508484905014610471576040517f08c379a00000000000000000000000000000000000000000000000000000000081526004016104689061193c565b60405180910390fd5b600080600090505b838390508110156104b8578383828181106104975761049661195c565b5b90506020020135826104a991906119ba565b91508080600101915050610479565b50806104e5600760019054906101000a900473ffffffffffffffffffffffffffffffffffffffff16610900565b1015610526576040517f08c379a000000000000000000000000000000000000000000000000000000000815260040161051d90611a60565b60405180910390fd5b60005b858590508110156105ae576105a1600760019054906101000a900473ffffffffffffffffffffffffffffffffffffffff1687878481811061056d5761056c61195c565b5b905060200201602081019061058291906116f0565b8686858181106105955761059461195c565b5b90506020020135610d1d565b8080600101915050610529565b505050505050565b6060600580546105c590611aaf565b80601f01602080910402602001604051908101604052809291908181526020018280546105f190611aaf565b801561063e5780601f106106135761010080835404028352916020019161063e565b820191906000526020600020905b81548152906001019060200180831161062157829003601f168201915b5050505050905090565b600080610653610e11565b9050610660818585610e19565b600191505092915050565b6000600254905090565b600080610680610e11565b905061068d858285610e2b565b610698858585610d1d565b60019150509392505050565b6000600760009054906101000a900460ff16905090565b600760019054906101000a900473ffffffffffffffffffffffffffffffffffffffff1673ffffffffffffffffffffffffffffffffffffffff163373ffffffffffffffffffffffffffffffffffffffff161461074b576040517f08c379a0000000000000000000000000000000000000000000000000000000008152600401610742906118d0565b60405180910390fd5b610778600760019054906101000a900473ffffffffffffffffffffffffffffffffffffffff168383610d1d565b5050565b600760019054906101000a900473ffffffffffffffffffffffffffffffffffffffff1673ffffffffffffffffffffffffffffffffffffffff163373ffffffffffffffffffffffffffffffffffffffff161461080c576040517f08c379a0000000000000000000000000000000000000000000000000000000008152600401610803906118d0565b60405180910390fd5b8047101561084f576040517f08c379a000000000000000000000000000000000000000000000000000000000815260040161084690611b52565b60405180910390fd5b60008273ffffffffffffffffffffffffffffffffffffffff168260405161087590611ba3565b60006040518083038185875af1925050503d80600081146108b2576040519150601f19603f3d011682016040523d82523d6000602084013e6108b7565b606091505b50509050806108fb576040517f08c379a00000000000000000000000000000000000000000000000000000000081526004016108f290611c04565b60405180910390fd5b505050565b60008060008373ffffffffffffffffffffffffffffffffffffffff1673ffffffffffffffffffffffffffffffffffffffff168152602001908152602001600020549050919050565b600760019054906101000a900473ffffffffffffffffffffffffffffffffffffffff1681565b60606006805461097d90611aaf565b80601f01602080910402602001604051908101604052809291908181526020018280546109a990611aaf565b80156109f65780601f106109cb576101008083540402835291602001916109f6565b820191906000526020600020905b8154815290600101906020018083116109d957829003601f168201915b5050505050905090565b600080610a0b610e11565b9050610a18818585610d1d565b600191505092915050565b6000600160008473ffffffffffffffffffffffffffffffffffffffff1673ffffffffffffffffffffffffffffffffffffffff16815260200190815260200160002060008373ffffffffffffffffffffffffffffffffffffffff1673ffffffffffffffffffffffffffffffffffffffff16815260200190815260200160002054905092915050565b600760019054906101000a900473ffffffffffffffffffffffffffffffffffffffff1673ffffffffffffffffffffffffffffffffffffffff163373ffffffffffffffffffffffffffffffffffffffff1614610b3a576040517f08c379a0000000000000000000000000000000000000000000000000000000008152600401610b31906118d0565b60405180910390fd5b818190508484905014610b82576040517f08c379a0000000000000000000000000000000000000000000000000000000008152600401610b799061193c565b60405180910390fd5b600080600090505b83839050811015610bc957838382818110610ba857610ba761195c565b5b9050602002013582610bba91906119ba565b91508080600101915050610b8a565b5080471015610c0d576040517f08c379a0000000000000000000000000000000000000000000000000000000008152600401610c0490611b52565b60405180910390fd5b60005b85859050811015610d15576000868683818110610c3057610c2f61195c565b5b9050602002016020810190610c459190611c24565b73ffffffffffffffffffffffffffffffffffffffff16858584818110610c6e57610c6d61195c565b5b90506020020135604051610c8190611ba3565b60006040518083038185875af1925050503d8060008114610cbe576040519150601f19603f3d011682016040523d82523d6000602084013e610cc3565b606091505b5050905080610d07576040517f08c379a0000000000000000000000000000000000000000000000000000000008152600401610cfe90611c04565b60405180910390fd5b508080600101915050610c10565b505050505050565b600073ffffffffffffffffffffffffffffffffffffffff168373ffffffffffffffffffffffffffffffffffffffff1603610d8f5760006040517f96c6fd1e000000000000000000000000000000000000000000000000000000008152600401610d86919061172c565b60405180910390fd5b600073ffffffffffffffffffffffffffffffffffffffff168273ffffffffffffffffffffffffffffffffffffffff1603610e015760006040517fec442f05000000000000000000000000000000000000000000000000000000008152600401610df8919061172c565b60405180910390fd5b610e0c838383610ec0565b505050565b600033905090565b610e2683838360016110e5565b505050565b6000610e378484610a23565b90507fffffffffffffffffffffffffffffffffffffffffffffffffffffffffffffffff811015610eba5781811015610eaa578281836040517ffb8f41b2000000000000000000000000000000000000000000000000000000008152600401610ea193929190611c51565b60405180910390fd5b610eb9848484840360006110e5565b5b50505050565b600073ffffffffffffffffffffffffffffffffffffffff168373ffffffffffffffffffffffffffffffffffffffff1603610f12578060026000828254610f0691906119ba565b92505081905550610fe5565b60008060008573ffffffffffffffffffffffffffffffffffffffff1673ffffffffffffffffffffffffffffffffffffffff16815260200190815260200160002054905081811015610f9e578381836040517fe450d38c000000000000000000000000000000000000000000000000000000008152600401610f9593929190611c51565b60405180910390fd5b8181036000808673ffffffffffffffffffffffffffffffffffffffff1673ffffffffffffffffffffffffffffffffffffffff16815260200190815260200160002081905550505b600073ffffffffffffffffffffffffffffffffffffffff168273ffffffffffffffffffffffffffffffffffffffff160361102e578060026000828254039250508190555061107b565b806000808473ffffffffffffffffffffffffffffffffffffffff1673ffffffffffffffffffffffffffffffffffffffff168152602001908152602001600020600082825401925050819055505b8173ffffffffffffffffffffffffffffffffffffffff168373ffffffffffffffffffffffffffffffffffffffff167fddf252ad1be2c89b69c2b068fc378daa952ba7f163c4a11628f55a4df523b3ef836040516110d891906115cd565b60405180910390a3505050565b600073ffffffffffffffffffffffffffffffffffffffff168473ffffffffffffffffffffffffffffffffffffffff16036111575760006040517fe602df0500000000000000000000000000000000000000000000000000000000815260040161114e919061172c565b60405180910390fd5b600073ffffffffffffffffffffffffffffffffffffffff168373ffffffffffffffffffffffffffffffffffffffff16036111c95760006040517f94280d620000000000000000000000000000000000000000000000000000000081526004016111c0919061172c565b60405180910390fd5b81600160008673ffffffffffffffffffffffffffffffffffffffff1673ffffffffffffffffffffffffffffffffffffffff16815260200190815260200160002060008573ffffffffffffffffffffffffffffffffffffffff1673ffffffffffffffffffffffffffffffffffffffff1681526020019081526020016000208190555080156112b6578273ffffffffffffffffffffffffffffffffffffffff168473ffffffffffffffffffffffffffffffffffffffff167f8c5be1e5ebec7d5bd14f71427d1e84f3dd0314c0f7b2291e5b200ac8c7c3b925846040516112ad91906115cd565b60405180910390a35b50505050565b600080fd5b600080fd5b600080fd5b600080fd5b600080fd5b60008083601f8401126112eb576112ea6112c6565b5b8235905067ffffffffffffffff811115611308576113076112cb565b5b602083019150836020820283011115611324576113236112d0565b5b9250929050565b60008083601f840112611341576113406112c6565b5b8235905067ffffffffffffffff81111561135e5761135d6112cb565b5b60208301915083602082028301111561137a576113796112d0565b5b9250929050565b6000806000806040858703121561139b5761139a6112bc565b5b600085013567ffffffffffffffff8111156113b9576113b86112c1565b5b6113c5878288016112d5565b9450945050602085013567ffffffffffffffff8111156113e8576113e76112c1565b5b6113f48782880161132b565b925092505092959194509250565b600081519050919050565b600082825260208201905092915050565b60005b8381101561143c578082015181840152602081019050611421565b60008484015250505050565b6000601f19601f8301169050919050565b600061146482611402565b61146e818561140d565b935061147e81856020860161141e565b61148781611448565b840191505092915050565b600060208201905081810360008301526114ac8184611459565b905092915050565b600073ffffffffffffffffffffffffffffffffffffffff82169050919050565b60006114df826114b4565b9050919050565b6114ef816114d4565b81146114fa57600080fd5b50565b60008135905061150c816114e6565b92915050565b6000819050919050565b61152581611512565b811461153057600080fd5b50565b6000813590506115428161151c565b92915050565b6000806040838503121561155f5761155e6112bc565b5b600061156d858286016114fd565b925050602061157e85828601611533565b9150509250929050565b60008115159050919050565b61159d81611588565b82525050565b60006020820190506115b86000830184611594565b92915050565b6115c781611512565b82525050565b60006020820190506115e260008301846115be565b92915050565b600080600060608486031215611601576116006112bc565b5b600061160f868287016114fd565b9350506020611620868287016114fd565b925050604061163186828701611533565b9150509250925092565b600060ff82169050919050565b6116518161163b565b82525050565b600060208201905061166c6000830184611648565b92915050565b600061167d826114b4565b9050919050565b61168d81611672565b811461169857600080fd5b50565b6000813590506116aa81611684565b92915050565b600080604083850312156116c7576116c66112bc565b5b60006116d58582860161169b565b92505060206116e685828601611533565b9150509250929050565b600060208284031215611706576117056112bc565b5b6000611714848285016114fd565b91505092915050565b611726816114d4565b82525050565b6000602082019050611741600083018461171d565b92915050565b6000806040838503121561175e5761175d6112bc565b5b600061176c858286016114fd565b925050602061177d858286016114fd565b9150509250929050565b60008083601f84011261179d5761179c6112c6565b5b8235905067ffffffffffffffff8111156117ba576117b96112cb565b5b6020830191508360208202830111156117d6576117d56112d0565b5b9250929050565b600080600080604085870312156117f7576117f66112bc565b5b600085013567ffffffffffffffff811115611815576118146112c1565b5b61182187828801611787565b9450945050602085013567ffffffffffffffff811115611844576118436112c1565b5b6118508782880161132b565b925092505092959194509250565b7f4f6e6c79206f776e65722063616e2063616c6c20746869732066756e6374696f60008201527f6e00000000000000000000000000000000000000000000000000000000000000602082015250565b60006118ba60218361140d565b91506118c58261185e565b604082019050919050565b600060208201905081810360008301526118e9816118ad565b9050919050565b7f417272617973206c656e677468206d69736d6174636800000000000000000000600082015250565b600061192660168361140d565b9150611931826118f0565b602082019050919050565b6000602082019050818103600083015261195581611919565b9050919050565b7f4e487b7100000000000000000000000000000000000000000000000000000000600052603260045260246000fd5b7f4e487b7100000000000000000000000000000000000000000000000000000000600052601160045260246000fd5b60006119c582611512565b91506119d083611512565b92508282019050808211156119e8576119e761198b565b5b92915050565b7f4f776e6572277320746f6b656e2062616c616e636520697320696e737566666960008201527f6369656e74000000000000000000000000000000000000000000000000000000602082015250565b6000611a4a60258361140d565b9150611a55826119ee565b604082019050919050565b60006020820190508181036000830152611a7981611a3d565b9050919050565b7f4e487b7100000000000000000000000000000000000000000000000000000000600052602260045260246000fd5b60006002820490506001821680611ac757607f821691505b602082108103611ada57611ad9611a80565b5b50919050565b7f436f6e74726163742773206e61746976652062616c616e636520697320696e7360008201527f756666696369656e740000000000000000000000000000000000000000000000602082015250565b6000611b3c60298361140d565b9150611b4782611ae0565b604082019050919050565b60006020820190508181036000830152611b6b81611b2f565b9050919050565b600081905092915050565b50565b6000611b8d600083611b72565b9150611b9882611b7d565b600082019050919050565b6000611bae82611b80565b9150819050919050565b7f4e617469766520746f6b656e207472616e73666572206661696c656400000000600082015250565b6000611bee601c8361140d565b9150611bf982611bb8565b602082019050919050565b60006020820190508181036000830152611c1d81611be1565b9050919050565b600060208284031215611c3a57611c396112bc565b5b6000611c488482850161169b565b91505092915050565b6000606082019050611c66600083018661171d565b611c7360208301856115be565b611c8060408301846115be565b94935050505056fea26469706673582212202f4f1851b62febc2dba5dfd2aaaab91bd4f3fcd8e26a05d1b2ad70e240ab0c1464736f6c634300081c0033",
  "linkReferences": {},
  "deployedLinkReferences": {}
}